:03000000020C7F70
:0C0C7F00787FE4F6D8FD758164020CC695
:081441008F97A7C7C7A7978F7B
:0813BF00ED93F5907FF47E012F
:0B13C700EF1FAC0670011E4C70F622F8
:0D1428007FA77EAB7D10DDFEDEFADFF60053
:011435002294
:04109200AB07AA06F8
:1010960090004BEAF0A3EBF0D3EB9400EA94004007
:1010A60014E4FD9014411213BF0DEDB404F5EB1BCF
:1010B60070E61A80E390004BE0FEA3E0FF7C007D23
:0410C60006120320EB
:0110CA002203
:0410CB00AB07AA06BF
:1010CF0090004BEAF0A3EBF0D3EB9400EA940040CE
:1010DF0014E4FD9014451213BF0DEDB404F5EB1B92
:1010EF0070E61A80E390004BE0FEA3E0FF7C007DEA
:0410FF0006120320B2
:0111030022C9
:0B0AAB0048002D141409080C37000649
:040F9800E0FD7F8A6F
:100F9C00D290EF54FEFFE4FEEF30E004D2A58002C5
:100FAC00C2A5D2A4C2A4EFC313FF0EEEB408E9E4A9
:100FBC00FEED30E004D2A58002C2A5D2A4C2A4EDFD
:0A0FCC00C313FD0EEEB408E9C29055
:010FD60022F8
:100FD700D290EF4401FFE4FDEF30E004D2A5800298
:100FE700C2A5D2A4C2A4EFC313FF0DEDB408E9E470
:100FF700FDEEC313FE30A5054480FE8004EE547F4A
:0E100700FED2A4C2A40DEDB408E7C290AF065D
:0110150022B8
:100B6300E4FF742D2FF582E43400F583E0FE75F085
:100B73000A84FDEE75F00A8474352FF582E434009F
:100B8300F583E5F0F0EDC454F0FE74352FF582E4FF
:100B93003400F583E02EF00FEFB408C6E4FD7F8E3A
:100BA300120F9C7D807F80120F9C900036E0FD7FAA
:100BB3008C120F9CA3E0FD7F88120F9CA3E0FD7FA6
:100BC30086120F9C90003C120F98900039E0FD7F35
:100BD30084120F9CA3E0FD7F82120F9CA3E0FD7F94
:0F0BE30080120F9CA3120F987D807F8E020F9CB3
:100D86007F8C120FD7900036EFF07F88120FD7A313
:100D9600EFF07F86120FD7A3EFF07F84120FD7A351
:100DA600EFF07F82120FD7A3EFF07F80120FD7EFFD
:100DB600547FA3F07F8A120FD7A3EFF0E4FF7435B8
:100DC6002FF582E43400F583E0FEC4540FFDEE54A3
:100DD6000FFE742D2FF582E43400F583EEF0ED75E9
:100DE600F00AA4FE742D2FF582E43400F583E02E7C
:060DF600F00FEFB408C885
:010DFC0022D4
:10110400C290C2A4E4FD7F80120F9CE4FD7F821292
:101114000F9CE4FD7F84120F9CE4FD7F86120F9CDC
:10112400E4FD7F88120F9CE4FD7F8A120F9CE4FD8E
:051134007F8C020F9CFE
:1013D200AD071FED600BE4FEEEC394FA50F20E80EF
:0113E200F713
:0113E30022E7
:1013F600C2B5D2B6D2B47580FFE58020E7FBC2B491
:0114060022C3
:051395001213D27F38A5
:10139A001213F6C2B5C2B6C2B48F80D2B4C2B42296
:10119D007F141213957F641213957F321213957F6E
:1011AD000A1213D27F0812139A7F0112139A7F0627
:0C11BD0012139A7F0C12139A7580FF2207
:10116C00A907E9540FF97C00ED5401FD64017004EA
:10117C00744029F9748029F9FF12139A1213F6D2CC
:10118C00B5C2B6C2B4AF038F80D2B4C2B47580FFFF
:01119C002230
:050F530090004BEFF0DF
:100F58001213537F901210552000037F0022900037
:100F68004BE04440FF1210552000037F002212136B
:100F7800537F911210552000037F002212123D90DA
:0F0F8800004CEFF012140712131490004CE0FF0E
:010F97002237
:10135300D2A000D2A10000000000C2A00000000043
:0613630000C2A1000022FF
:07130D00EF1202FC121407AD
:10131400C2A000D2A10000000000D2A00000000082
:0113240022A6
:10105500E4FEEFA806088002C333D8FC30E704D2CB
:10106500A08002C2A000D2A10000000000C2A10E13
:10107500EEB408DE0000D2A00000D2A100000030CE
:0C108500A004C2008002D200C2A1000042
:01109100223C
:10123D00E4FFD2A0FE00C2A10000000000D2A10078
:10124D0000EF25E0FF30A0010F00000EEEB408E521
:04125D00C2A100002A
:01126100226A
:10140700D2A0000000D2A10000000000C2A100008D
:0114170022B2
:1012BF00121353121055200002C322AF05121055FE
:0A12CF00200002C322121314D322E0
:100DFD0090003DEFF0A3EDF0A3EBF0A3EAF0A3E933
:010E0D00F0F4
:100E0E00E4900043F0900042E0FFA3E0C39F5054F3
:100E1E0012135390003DE0FF121055200002C32222
:100E2E0090003EE0FF121055200002C32290003FBA
:100E3E00E0FBA3E0FAA3E0F91202E3FF1210552043
:100E4E000002C3221213147F011213AA900040E471
:100E5E0075F00112037590003EE004F0900043E03F
:050E6E0004F080A1D397
:010E7300225C
:10136900121353EF04FF121055200002C322121268
:061379003D12130DD3220A
:0D0D0B00900046EBF0A3EAF0A3E9F0AC077E
:100D1800121353121055200002C322AF05121055AA
:100D2800200002C322121353EC04FF1210552000B6
:100D380002C322E490004AF0900049E014FFA3E0C7
:100D4800C39F502712123D900046E0FBA3E0FAA390
:100D5800E0F9EF1202FC120000900047E475F00180
:100D680012037590004AE004F080CD12123D900005
:0D0D780046E0FBA3E0FAA3E0F912130DD34F
:010D8500224B
:10132500AC071213537FA0121055AF04121055AF1E
:07133500051210550213140C
:02128500AD07B3
:101287001213537FA0121055AF05121055121353A6
:0B1297007FA112105512123D1213141B
:0112A2002229
:03145100DFFE2299
:1013AA00AE07AF061EEF600C7FF51214517FF512DF
:0513BA00145180EE2239
:100BF20053554E4D4F4E545545574544544855460E
:100C0200524953415453554E3031323334353637CD
:100C120038394142434445460000010203040506B7
:100C22000708090A0B0C0D0E0F10111213141516DA
:100C32001718191A1B1C1D1E1F20212223242526CA
:100C42002728292A2B2C2D2E2F30313233343536BA
:100C52003738393A3B3C3D3E3F40414243444546AA
:100C62004748494A4B4C4D4E4F505152535455569A
:0D0C72005758595A5B5C5D5E5F60616263BC
:100AB600112120323030302F30302F30302030307E
:100AC6003020001132202030303A30303A30302099
:100AD60030302E3043001143B9E2C7BF3A302D32D1
:100AE6003535204C3A303030001154C4A3CABD3AD3
:100AF6003020313030D7B4CCAC3A3100500000024F
:100B06000002010009000801020505000000064276
:100B16000019000042001D000042002500004200AE
:100B2600270258410016004200140000420010003F
:100B360000420012000141001F0041002000420057
:100B460029000B420023000042001B000042002146
:0C0B5600000042002B00004200170001CC
:10101600121139120D86120E7490001BEEF0A3EF1A
:10102600F07F01120F53C374FF9F900022F0E494E7
:1010360000900021F0D2907590871203D6120EE42C
:0F104600120705900016E0FD7F0112132580C4EC
:100EE400900019E07002A3E06064E4900020F090A8
:100EF4000020E0FFC39408504BE0FE25E02401F5F8
:100F040082E43400F583E0FDEE25E02400F582E47C
:100F14003400F583E075F00AA4240BF582E5F0347F
:100F24000AF583E5822DF582E43583F583E493FEA7
:100F3400742D2FF582E43400F583EEF0900020E068
:0F0F440004F080AB120B63E4900019F0A3F022CD
:10070500900014E07004A3E06401703B900016E0D3
:10071500FFC374649FFFE49400FE7C007D06120312
:100725000E900027EEF0A3EFF01210CB9000167498
:1007350064F0E4900012F0A3F0A3F0A3F09000277A
:100745007402F0A37458F0900014E07004A3E06400
:10075500027031900016E075F006A4FFAEF090002F
:1007650027EEF0A3EFF0121092E4900016F090003F
:1007750012F0A304F0E4A3F0A3F09000277402F0B4
:10078500A37458F0900016E0FFC394644007E4900A
:100795000012F0A3F0EF7007900012F0A304F0EF41
:1007A500D39400400EEF94645009900012E4F0A336
:1007B5007402F0900017E07004A3E0640160030286
:1007C5000896900039E0FDC4540F75F00AA4FFEDBA
:1007D500540F7C002FFFEC35F0FE90002BF0A3EFBB
:1007E500F0C3EE9400400BE0940690002BE09400DB
:1007F500402A90002BE0FEA3E0FFD39417EE94006F
:100805005008EF9414EE94005012D3EF9410EE9428
:10081500005042C3EF940CEE94004039D39000226F
:10082500E094BD900021E09400501190001CE094EC
:100835002C90001BE094015003020936900012E051
:100845007004A3E064016003020936900014F0A36C
:1008550004F0020936C3900022E094AA900021E03A
:1008650094004003020936C390001CE0942C9000CC
:100875001BE094014003020936900012E07002A3C8
:10088500E06003020936900014F0A37402F0020937
:1008950036900010E07004A3E064027041900010EF
:1008A500F0A3F0A3E0FEA3E0FF64014E6006EF6451
:1008B500024E702A900027E0FEA3E0FF1210CB90B5
:1008C5000016E02FF0C39464400A7464F0E49000CD
:1008D50012F0A3F09000277402F0A37458F0900072
:1008E50010E07004A3E064017047900010F0A3F0DD
:1008F500A3E0FEA3E0FF4E6006EF64024E70329067
:100905000016E0FFC007900027E0FEA3E0FF1210ED
:1009150092C3D0E09F900016F0D394005009E4F004
:10092500900012F0A304F09000277402F0A374580D
:10093500F0900016E0FFC394644007E4900012F0C5
:10094500A3F0EF7007900012F0A304F0EFD394002A
:10095500400EEF94645009900012E4F0A37402F085
:01096500226F
:10113900121217121104120B6312137FE490001795
:10114900F0A3F0900010F0A3F0A3F0A304F07580D1
:10115900FFFF121285900016EFF0D39464400374D8
:0311690064F0220D
:1003D600900036E0FFC4540F900C0A93F524EF54B6
:1003E6000F93F525900037E0FFC4540F900C0A9345
:1003F600F527EF540F93F528900038E0FFC4540F0B
:10040600900C0A93F52AEF540F93F52BE490001FF6
:10041600F090001FE0FF90003CE075F003A424F28A
:10042600F582E4340BF583E5822FF582E43583F516
:1004360083E493FE742D2FF8A60690001FE004F0C7
:10044600E0B403CD900039E0FFC4540F900C0A933A
:10045600F534EF540F93F53590003AE0FFC4540F8E
:10046600900C0A93F537EF540F93F53890003BE064
:10047600FFC4540F900C0A93F53AEF540F93F53BD3
:1004860090001BE0FAA3E0FB7C007D64FFAE021245
:100496000320740A2FF582740C3EF583E493F53D30
:1004A6007C007D64AF03AE021203207E007F0ACF7C
:1004B600CDCFCECCCE120320740A2FF582740C3E1B
:1004C600F583E493F53E90001BE0FEA3E0FF7C007D
:1004D6007D0A120320740A2DF582740C3CF583E420
:1004E60093F540900021E0FAA3E0FB7C007D64FFD9
:1004F600AE02120320740A2FF582740C3EF583E4D3
:1005060093F5507C007D64AF03AE02120320AA046B
:10051600AB057D0A7C00AF03AE02120320740A2FDE
:10052600F582740C3EF583E493F5517D0A7C00AFA9
:1005360003AE02120320740A2DF582740C3CF58377
:10054600E493F552900017E0FEA3E0240AF58274C6
:100556000C3EF583E493F559900016E0FF75F064C0
:1005660084900C0A93F55BEF75F06484AFF0EF7539
:10057600F00A8493F55CEF75F00A84E5F093F55D77
:10058600900012E0FEA3E0240AF582740C3EF58387
:10059600E493F563E4FDFF121262E490001FF0900D
:1005A600001FE0FFC39410501174212FF8E6FF12CC
:1005B60012F390001FE004F080E5E4FD7F011212C3
:1005C60062E490001FF090001FE0FFC394105011EA
:1005D60074322FF8E6FF1212F390001FE004F08049
:1005E600E5E4FD7F02121262E490001FF090001F06
:1005F600E0FFC39410501174432FF8E6FF1212F374
:1006060090001FE004F080E5E4FD7F03121262E42F
:1006160090001FF090001FE0FFC394105011745417
:100626002FF8E6FF1212F390001FE004F080E59029
:100636000025E07004A3E0640160030207047F0A5A
:100646001214497F541214497F3A12144990002912
:10065600E4F0A3740BF0900029E0FEA3E0FFC3943E
:1006660010EE9400501974322FF8E6FF12144990D8
:10067600002AE004F07006900029E004F080D77F9D
:100686000A121449900029E4F0A3740BF090002993
:10069600E0FEA3E0FFC39410EE9400501974432FBC
:1006A600F8E6FF12144990002AE004F07006900064
:1006B60029E004F080D77F0A1214497F50121449AA
:1006C6007F3A121449900029E4F0A37407F09000D1
:1006D60029E0FEA3E0FFC3940AEE94005019745477
:1006E6002FF8E6FF12144990002AE004F0700690F5
:0F06F6000029E004F080D7E4900025F0A3F02263
:0300230002096669
:10096600C0E0C083C082C0D075D000C004C005C03E
:0309760006C007B1
:10097900209803020A9AC298AF99EFB46D239000A8
:1009890017E07002A3E070047E0180027E00EEFD94
:100999007C00900017ECF0A3EDF0F5993099FDC2B9
:1009A90099EFB46B10900014E4F0A37402F08F99DE
:1009B9003099FDC299EFB4620F900014E4F0A304DA
:1009C900F08F993099FDC299EFB4730F900025E427
:1009D900F0A304F08F993099FDC299EFB46F189084
:1009E9000010E4F0A304F0900027E4F0A3743CF0B5
:1009F9008F993099FDC299EFB47119900010E4F004
:100A0900A37402F0900027E4F0A3743CF08F9930AE
:100A190099FDC29990001DE07002A3E06058900012
:100A290023E0FCA3E02400F58274003CF583EFF099
:100A3900900024E004F07006900023E004F0900098
:100A490023E07004A3E0640F7014900023F0A3F076
:100A5900900019F0A304F090001DE4F0A3F09000B9
:100A690023E0FCA3E02400F58274003CF583E0F563
:100A7900993099FDC299EFB4741790001DE4F0A361
:100A890004F0900019E4F0A304F08F993099FDC2A5
:010A990099C3
:100A9A00D007D006D005D004D0D0D082D083D0E001
:010AAA003219
:0B143600EF1FAC0670011E4C70F62288
:1011C900E4FDD2A27F08FE121436C2A27F507E002F
:1011D900121436D2A27F0E7E00121436A2A2E43374
:0811E900FD7F147E00021436A4
:10000300E4FB7D08C2A2EBC313FBD2A230A20344DC
:0F00130080FB7F047E00121436DDE9AF037E0010
:0100220022BB
:0212D900AD075F
:1012DB007B08C2A2ED1392A27F057E00121436D2B8
:0712EB00A2EDC313FDDBEBD4
:0112F20022D9
:100E7400E4FAFFFDFC90004B1203A50000000012F1
:100E840011C97FCC1212D97F441212D91211C97F11
:100E9400CC1212D97FBE1212D9120003AA07120073
:100EA40003AD07EDFCEAFDE4120229E4FBFA7980C4
:100EB400783D12011E90004B120399E4FFFE7D2041
:100EC4007C4190004BE0F8A3E0F9A3E0FAA3E0FB37
:0F0ED40012011EE4FBFAF9783F12002D120262A0
:010EE30022EC
:10137F00758920759850758DFD858D8BE4F587D215
:06138F00AFD2ACD28E22A9
:081449008F993099FDC2992230
:0411F1007F057E00F8
:0A11F500EF1FAC0670011E4C6017DE
:1011FF00E490004BF090004BE0C394FA50E80000ED
:07120F000000E004F080EE96
:0112160022B5
:10133C00E4F580C2B5D2B6D2B400000000E580332B
:06134C009201C2B4A201EF
:011352002278
:1012A30012133C40FBC2B5C2B6C2B400008F80002B
:0C12B300000000D2B400000000C2B42211
:1012F30012133C40FBD2B5C2B6C2B48F80000000CB
:0A13030000D2B400000000C2B422C2
:10121700D2B77F341212A31211F17F301212A31228
:1012270011F17F0C1212A31211F17F011212A37F89
:06123700057E000211F526
:1013E400AD071FED600BE4FEEEC3940D50F20E80CA
:0113F400F701
:0113F50022D5
:10126200EF70047F808016EFB401047F90800EEF50
:10127200B402047F888006EFB403027F98EF2DFF4B
:031282000212A3B2
:10141800438901758CFF758A9CD2A9D2AFD28C22E0
:100026000202CEE86480F8E933E83360110460F038
:10003600ED33EC337009E8FCE9FDEAFEEBFF220440
:1000460060DED3EB9FEA9EE99DE8C2E78CF0C2F73B
:1000560095F0400CE8CCF8E9CDF9EACEFAEBCFFB07
:1000660012029985D0F05804700320D5B3E80470C5
:10007600075002B2D50202D892D5EC0460F7E4CC60
:10008600C0E0C398F8603B94186008400DD0E0FBD0
:100096000202B0E4FBFAC9FC8028E830E406E4C9B1
:1000A600FBE4CAFCE830E305E4C9CACBFCE8540724
:1000B6006010F8C3E913F9EA13FAEB13FBEC13FC2F
:1000C600D8F130F52FC3E49CFCEF9BFFEE9AFEEDD2
:1000D60099FDD0E0FBEF4E4D4C701222DB0302027D
:1000E600D5EC2CFCEF33FFEE33FEED33FDED30E7C0
:1000F600EB0202B0EF2BFFEE3AFEED39FDD0E0FB4E
:1001060050130BBB00030202D8ED13FDEE13FEEFF6
:0801160013FFEC13FC0202B020
:10011E00EC4D6011E8497017ED33EC3304600DE4DB
:10012E00FCFFFEFD22E933E8330470F80202CE1222
:10013E00029958046009E4CC248150062850090223
:10014E0002D82840030202D5C0E0EB4A7044B980C1
:10015E0006D0E0FB0202C4EF4E701CBD8008EBFF20
:10016E00EAFEE9FD80EBE98DF0A4FEE5F002020760
:10017E00E9CDF9EAFEEBFFEF89F0A4FCE5F0CE89BC
:10018E00F0A42EFFE435F0CD89F0A42DFEE435F079
:10019E008067EF4E7005BD80D780C3EF8BF0A4ACA7
:1001AE00F0EE8BF0A42CFCE435F0F8EF8AF0A42CE2
:1001BE00E5F038FCE433CB8DF0A42CFCE5F03BF8F5
:1001CE00EE8AF0A42CFCE5F038F8E433CF89F0A4E5
:1001DE002CFCE5F038CF3400CE89F0A42FFFE5F0EB
:1001EE003EFEE433C98DF0A42EFEE5F039CD8AF043
:1001FE00A42FFFE5F03EFEE43DFD33D0E0FB5007BB
:10020E000BBB000F0202D8EC2CFCEF33FFEE33FEDB
:06021E00ED33FD0202B009
:1002240075F020800E75F010800575F0087D007E55
:10023400007F003392D530D50312038BEC3340108A
:10024400EF33FFEE33FEED33FDEC33FCD5F0ED225E
:0E025400E5F0247EA2D513CC92E7CDCEFF229A
:10026200EDD2E7CD33EC3392D524814006E4FFFE94
:10027200FDFC22FCE4CFCECDCC24E0501174FF80F3
:10028200EDC3CC13CCCD13CDCE13CECF13CF047090
:07029200F030D5DE02038B02
:10029900E9D2E7C933E833F892D5EDD2E7CD33ECAB
:0702A90033FC5002B2D52224
:1002B000EC30E7100FBF000C0EBE00080DBD0004AF
:1002C0000BEB6014A2D5EB13FCED92E7FD2274FF5B
:1002D000FCFDFEFF22E480F8A2D574FF13FC7D80B4
:0302E000E480EFC8
:100C8B00021016E493A3F8E493A34003F68001F259
:100C9B0008DFF48029E493A3F85407240CC8C3336A
:100CAB00C4540F4420C8834004F456800146F6DF39
:100CBB00E4800B0102040810204080900AABE47E14
:100CCB00019360BCA3FF543F30E509541FFEE4932E
:100CDB00A360010ECF54C025E060A840B8E493A3F5
:100CEB00FAE493A3F8E493A3C8C582C8CAC583CA20
:100CFB00F0A3C8C582C8CAC583CADFE9DEE780BED8
:010B62000092
:1002E300BB010689828A83E0225002E722BBFE0219
:0902F300E32289828A83E493224C
:1002FC00BB010689828A83F0225002F722BBFE01E1
:02030C00F322DA
:10030E00EF8DF0A4A8F0CF8CF0A428CE8DF0A42E03
:02031E00FE22BD
:10032000BC000BBE0029EF8DF084FFADF022E4CCC1
:10033000F875F008EF2FFFEE33FEEC33FCEE9DEC8A
:10034000984005FCEE9DFE0FD5F0E9E4CEFD22EDD0
:10035000F8F5F0EE8420D21CFEADF075F008EF2F1A
:10036000FFED33FD4007985006D5F0F222C398FD0B
:050370000FD5F0EA22A8
:10037500C5F0F8A3E028F0C5F0F8E5821582700213
:060385001583E038F022B0
:0E038B00C3E49FFFE49EFEE49DFDE49CFC2283
:0C039900ECF0A3EDF0A3EEF0A3EFF022D7
:1003A500A8828583F0D083D0821203BC1203BC12CD
:1003B50003BC1203BCE473E493A3C583C5F0C583F2
:1003C500C8C582C8F0A3C583C5F0C583C8C582C8A2
:0103D5002205
:00000001FF
